:020000040000FA
:060000000208F6020D509B
:03000B00020D08DB
:10001300020EB3E4F527E4FDAF27120C3F0527E5F5
:0700230027C3948040F02286
:03002B00020AC8FE
:100033000207C8E59154045391FB7595F87594062E
:0C0043007593F8759206439104429122D7
:1000530002071FAFA775A71053E67FAD1DAC1C4366
:10006300E6808FA7AE04AF052275E68A75A86022E5
:10007300020E444C61702054696D65733A00535409
:100083004F5057415443480044616E502F436872A8
:10009300697345000020505020C06060104000008C
:1000A30000000000702070F810F830F87070000045
:1000B300080080707070F070E0F8F870887038880D
:1000C30080888870F070F078F88888888888F8705D
:1000D3000070200040008000080030008020108065
:1000E300600000000000000040000000000000303D
:1000F30020600000000000000020505078C89020CD
:1001030020202020000000008860881030804008F4
:10011300888860601000408808888888908080887C
:100123008820109080D8888888888880208888884C
:10013300888808400010500020008000080048789C
:10014300800000802000000000000000400000004C
:10015300000000402010400000000000002050F884
:100163008010A0404010A82000000008982008201C
:1001730050F080108888606020F820080888888004
:1001830088808080882010A080A8C888888888807C
:100193002088888850881040801088001070B070C4
:1001A30068704088B060309020D0B070F068B07054
:1001B300E08888888888F8402010A80000000000A4
:1001C3000020005070204000401070F800F800102C
:1001D300A82010109008F020707800004000101044
:1001E3006888F08088F0F0B8F82010C080A8A8884C
:1001F300F088F070208888A820502040401000002C
:100203000008C8809888E088C82010A020A8C88863
:100213008898C880408888885088108020081000FB
:1002230000000000000000F80840A8004010A820CB
:1002330060000020C8202008F80888408808606013
:1002430020F82020A8F8888088808088882010A043
:100253008088988880A8A008208888A850204040DB
:10026300201000000078888088F84078882010C02B
:1002730020A88888F0788070408888A8207820405B
:10028300201000000000000000000050F0989000D3
:10029300202020202000604088204088108888404B
:1002A3008810602010004000A8888888908080888B
:1002B300882090908088888880909008208850A813
:1002C30088208040101000000088888888804008BB
:1002D300882090A02088888880088008489850A8A3
:1002E3005008404020100000000000000020005093
:1002F3002018680010400000400060807070F870A3
:100303001070704070600040080080207088F070AA
:10031300E0F8807088706088F8888870806888F05A
:10032300207020508820F870087000FC0078F0706E
:10033300787040708870609070888870800880F052
:10034300306820508870F830206000000000000002
:10035300000000000000000000000000000000009A
:10036300000000000000000000000000000000008A
:10037300000000000000000000000000000000007A
:10038300000000000000000000000000000000006A
:10039300000000000000000000000000000000005A
:1003A300000000000000000000000000000000004A
:1003B30000000000BB010689828A83E0225002E725
:1003C30022BBFE02E32289828A83E49322BB010CCF
:1003D300E58229F582E5833AF583E0225006E92593
:1003E30082F8E622BBFE06E92582F8E222E58229AD
:1003F300F582E5833AF583E49322F8BB010DE582A8
:1004030029F582E5833AF583E8F0225006E925824F
:10041300C8F622BBFE05E92582C8F222BC000BBE4A
:100423000029EF8DF084FFADF022E4CCF875F008DD
:10043300EF2FFFEE33FEEC33FCEE9DEC984005FC12
:10044300EE9DFE0FD5F0E9E4CEFD22EDF8F5F0EEDA
:100453008420D21CFEADF075F008EF2FFFED33FDC5
:100463004007985006D5F0F222C398FD0FD5F0EA65
:1004730022E88FF0A4CC8BF0A42CFCE98EF0A42C02
:10048300FC8AF0EDA42CFCEA8EF0A4CDA8F08BF04E
:10049300A42DCC3825F0FDE98FF0A42CCD35F0FC4C
:1004A300EB8EF0A4FEA9F0EB8FF0A4CFC5F02ECD18
:1004B30039FEE43CFCEAA42DCE35F0FDE43CFC22FD
:1004C30075F008758200EF2FFFEE33FECD33CDCCF0
:1004D30033CCC58233C5829BED9AEC99E582984073
:1004E3000CF582EE9BFEED9AFDEC99FC0FD5F0D650
:1004F300E4CEFBE4CDFAE4CCF9A88222B800C1B97A
:100503000059BA002DEC8BF084CFCECDFCE5F0CBB7
:10051300F97818EF2FFFEE33FEED33FDEC33FCEBF0
:1005230033FB10D703994004EB99FB0FD8E5E4F9AB
:10053300FA227818EF2FFFEE33FEED33FDEC33FC98
:10054300C933C910D7059BE99A4007EC9BFCE99A8C
:10055300F90FD8E0E4C9FAE4CCFB2275F010EF2FD1
:10056300FFEE33FEED33FDCC33CCC833C810D707D1
:100573009BEC9AE899400AED9BFDEC9AFCE899F80C
:100583000FD5F0DAE4CDFBE4CCFAE4C8F922EB9F13
:10059300F5F0EA9E42F0E99D42F0E89C45F022E83E
:1005A300600FECC313FCED13FDEE13FEEF13FFD846
:1005B300F1228E2E8F2F8D308B31AB32AA33A9349B
:1005C3001203B7700302071EF536C3648094A0407C
:1005D30009D3E536648094FF4003753620E535750D
:1005E300F008A4FFC374809FFFE530D39F4003024C
:1005F3000706AF36EF3395E0FE75F064E531A42FBF
:10060300F582E5F03EF583E58224A9F582E583349E
:100613000EF583E493FBE4F53BF53AF539F538FA47
:10062300EB20E0030206A7E535B4011DAF3BAE3A6C
:10063300AD39AC38F9F81205A2EFF53BEEF53AED1A
:10064300F539EC4480F5388072E535B4021DAF3BD3
:10065300AE3AAD39AC38F9F81205A2EFF53BEEF539
:100663003AEDF539EC44C0F5388050E535AF3BAE93
:100673003AAD39AC38B40315F9F81205A2EFF53BDE
:10068300EEF53AEDF539EC44E0F538802EA935A8BE
:10069300011205A2EFF53BEEF53AEDF539EC44F026
:1006A300F5388017AF3BAE3AAD39AC38A935A80160
:1006B3001205A28F3B8E3A8D398C38EBC313FB0A9C
:1006C300EA64086003020623E4FAEAC3953550336B
:1006D300EA75F008A4FFC374189FF537EA75F008AC
:1006E300A42530FDC005AF3BAE3AAD39AC38A937D0
:1006F300A8011205A2AB07D005AF2FAE2E1209FC3D
:100703000A80C774012534F534E43533F533E53510
:1007130075F006A42530F5300205BD22C0E0C0F017
:10072300C083C082C0D075D000C000C001C002C069
:1007330003C004C005C006C007754C00754B0075A7
:100743004A00754900C2EDAFBDAEBEE4FCFDE50B4A
:100753002FF50BE50A3EF50AED3509F509EC3508E9
:10076300F508E50D150D7002150CE50D450C703AF5
:10077300F50C750D01850B4C850A4B85094A8508D7
:1007830049F50BF50AF509F5087FE47E0CAB4CAA95
:100793004BA94AA849120474E47BFF7A03F9F812BF
:1007A30004FF8F118E108D0F8C0ED007D006D0054D
:1007B300D004D003D002D001D000D0D0D082D083D7
:1007C300D0F0D0E032C0E0C0F0C083C082C0D075AA
:1007D300D000C000C001C002C003C004C005C006F1
:1007E300C00775A720E5F854F0F4440F52F8AF9B07
:1007F300EF30E34DE5126031E5A120E02C30011329
:10080300851682851583E5A3F00516E516700705A1
:1008130015800385A326D5120D300305300002D2BF
:10082300FA120DC48003851214E513601430F91114
:10083300300209A817E2F5A30517800375A3001575
:1008430013D007D006D005D004D003D002D001D0F6
:1008530000D0D0D082D083D0F0D0E0327B007A00B9
:100863007966AF65AE648E278F288B298A2A892BF8
:10087300752C06E4F52DAF2C152CEF3395E08F8204
:10088300F583E41203FDAF2C152CEF3395E08F8233
:10089300F58374731203FDE52DB40117AB29AA2A5E
:1008A300A92BAF2C152CEF3395E08F82F583742E93
:1008B3001203FDAE27AF287C007D0A12041FED242E
:1008C30030FFAB29AA2AA92BE52CFD3395E08D82B5
:1008D300F583EF1203FDAE27AF287C007D0A1204D7
:1008E3001F8E278F28052D152CC3E52C648094803B
:1008F30050A522787FE4F6D8FD75816E02093D028A
:100903000E7CE493A3F8E493A34003F68001F2087A
:10091300DFF48029E493A3F85407240CC8C333C439
:10092300540F4420C8834004F456800146F6DFE4A4
:10093300800B0102040810204080900C7AE47E01B1
:100943009360BCA3FF543F30E509541FFEE493A317
:1009530060010ECF54C025E060A840B8E493A3FA29
:10096300E493A3F8E493A3C8C582C8CAC583CAF0B5
:10097300A3C8C582C8CAC583CADFE9DEE780BEE56E
:100983004F65506073E550C39409506CE54F25E003
:100993002451F8A66408A665E54F701E7BFF7A0014
:1009A3007976752B017D28120A6512085F7B007A20
:1009B300007966752B017D328038E54F25E0244FA1
:1009C300F8E6FE08E6FFE54F25E02451F8E6FC08CB
:1009D300E6C39FFFEC9EFE7B007A007966120869EE
:1009E3007B007A007966E54F75F008A42432FD7523
:1009F3002B01120A6585504F22ED131313541F2F39
:100A0300F53DE43EF53C853D82F583C083C082ED30
:100A13005407F9E47EFFA801088005CEC313CE1363
:100A2300D8F9F4FFEEF4FEE05EFEA3E05FFFD082B0
:100A3300D083EEF0A3EFF0853D82853C83C083C075
:100A430082EBFEE4A801088005CEC313CE13D8F9C8
:100A5300FFE04EFEA3E04FFFD082D083EEF0A3EF82
:100A6300F0228B278A2889298D2AE4F52C7E007FA2
:100A730014120E117E007F148527328528338529B1
:100A830034852B35AB2C7D041205B5752D01E52B73
:100A93002401FFE433FEC3E52D9FEE6480F87480E8
:100AA300985018E52C852BF0A4252A252DFF7B01D2
:100AB3007A007914120BBC052D80D3052CE52CC3C9
:100AC300940840A922C0E0C0F0C083C082C0D075A2
:100AD300D000C000C001C002C003C004C005C006EE
:100AE300C00753C87F53C8FBE51AB40112751A0235
:100AF3007F00851B257B02E4FDFC120B27800AE5A2
:100B03001AB40305C2A6751A00D007D006D005D0C3
:100B130004D003D002D001D000D0D0D082D083D073
:100B2300F0D0E0328525128525138525148F178C87
:100B3300158D16EB139201EBA2E19202AFA775A7F5
:100B430020200403120E22439A0453F80F539BEF01
:100B5300439A08300305300002C2FA30F915E51351
:100B63006011300209A817E2F5A305178003E4F525
:100B7300A315138FA722120EBB120D90120E897BA1
:100B8300FF7A007981752B02E4FD120A657BFF7AF7
:100B930000798B752B017D78120A65120E331209C9
:100BA30082E563B4010720A804C2A9D2A930820256
:100BB300D2A83083E6D2AA80E28F2E8B2F8A308987
:100BC300317F80120D2F8F32E52E04FF120CB18F6F
:100BD30033E4FFAB2FAA30A9318F82758300120350
:100BE300D0FE74342FF8A6060FBF10E7E4F544F5E2
:100BF30045FB7A0079327D14020BFE8B468A4789C6
:100C030048E51A70FC751A018D1BE4FFEFC39D5074
:100C130018AB46AA47A9488F827583001203D0FEFA
:100C230074002FF8EEF20F80E3AFA7E4F5A775CFBA
:100C3300FF75CEF4D2A643C8048FA7228F288D292F
:100C4300E52960057529FF8003E4F5297F80120DEE
:100C53002F8F2AE52804FF120CB18F2BE4FF742C8D
:100C63002FF8A6290FBF10F6E4F53CF53DFB7A00FB
:100C7300792A7D14020BFE02180000011A00011BE1
:100C830000021C0000C100C103C104C101C1020173
:100C930012000113000114000117000215000002E5
:100CA3004D0000040800000000020C000100EF5496
:100CB3000FC454F0FEEF54F0C4540F4EFF543325C9
:100CC300E025E0FEEF54CC1313543F4EFF5455255B
:100CD300E0FEEF54AAC3134EFF2285A727120E95F9
:100CE300120DD8120DEB120E9F120E62120DAE12E0
:100CF3000EC3120DFE120036120EA9120E6F120051
:100D03006C8527A722C0E0C0D0054EE54E700205D2
:100D13004DB42013E54DB4030E0565E5657002057A
:100D230064754D00754E00D0D0D0E0328F4612006E
:100D330056C3EF9519FDEE9518FCD3ED94C8EC94CA
:100D43000040074346408E188F19AF4622C0E0C0CB
:100D5300D075D000C00720820CB2A9E5637F007074
:100D6300027F018F63C2A8D007D0D0D0E032AB0797
:100D7300AA061200568F828E83120056C3EF958205
:100D8300FFEE9583FEC3EF9BEE9A40ED22AF8853AF
:100D930088AF758CC0EF5440FEEF54104E428875F7
:100DA3008E02758902438810C2A92275B301E4F546
:100DB300B275BB0D75DF3F75BC0875B90143E8809B
:100DC30022751A03AFA7E4F5A775CFFF75CEFC43D1
:100DD300C8048FA7227580FF75A44075F1FF75D4F1
:100DE3003F75FE0475FDFF227590FF75A57175F2C1
:100DF3007D75D58EE4F5EE75EDFF22AF885388AF90
:100E0300758C01EF5440FEEF54104E428822E4FDEE
:100E1300EF2DF582E43EF583E4F00DBD10F222E5FB
:100E2300A1A2E69203E5F8540C24FF9200D2042217
:100E330012085F7B007A007966752B017D14020A24
:100E430065C0E053917F051DE51D7002051CD0E0D0
:100E530032C2A6D2B47F0A7E00120D71020016E4DC
:100E6300F5A775E34075E10275E2032275A20B4312
:100E7300A14053F8F343F80122120CDDD2AF120E56
:100E830054120B7980FEE4F564F565F550F54FF5E2
:100E93006322E4F5A77597DE7597AD2275A64875AD
:100EA300A72075CC0822758E02758902438810220B
:100EB3002083020550C2AA3275E432D2A8D2AA22F4
:100EC300E4F5A9F5A9220020505020C0606010402D
:100ED300000000000000702070F810F830F8707007
:100EE3000000080080707070F070E0F8F87088708F
:100EF300388880888870F070F078F88888888888C7
:100F0300F87000702000400080000800300080204E
:100F1300108060000000000000004000000000009E
:100F2300003020600000000000000020505078C80E
:100F3300902020202020000000008860881030804E
:100F430040088888606010004088088888889080FE
:100F530080888820109080D8888888888880208816
:100F6300888888880840001050002000800008000E
:100F7300487880000080200000000000000040004E
:100F8300000000000040201040000000000000208E
:100F930050F88010A0404010A820000000089820BE
:100FA300082050F080108888606020F820080888A6
:100FB300888088808080882010A080A8C88888883E
:100FC300888020888888508810408010880010709E
:100FD300B07068704088B060309020D0B070F06816
:100FE300B070E08888888888F8402010A800000046
:100FF30000000020005070204000401070F800F8FE
:101003000010A82010109008F02070780000400015
:1010130010106888F08088F0F0B8F82010C080A81D
:10102300A888F088F070208888A8205020404010BD
:1010330000000008C8809888E088C82010A020A875
:10104300C8888898C880408888885088108020087D
:10105300100000000000000000F80840A800401045
:10106300A82060000020C8202008F80888408808CD
:10107300606020F82020A8F88880888080888820F5
:1010830010A08088988880A8A008208888A850206D
:101093004040201000000078888088F8407888203D
:1010A30010C020A88888F0788070408888A82078AD
:1010B3002040201000000000000000000050F098C5
:1010C3009000202020202000604088204088108845
:1010D30088408810602010004000A888888890808D
:1010E30080888820909080888888809090082088C5
:1010F30050A88820804010100000008888888880CD
:101103004008882090A02088888880088008489814
:1011130050A85008404020100000000000000020AC
:10112300005020186800104000004000608070707C
:10113300F870107070407060004008008020708864
:10114300F070E0F8807088706088F8888870806834
:1011530088F0207020508820F870087000FC007818
:10116300F070787040708870609070888870800824
:1011730080F0306820508870F83020600000000054
:10118300000000000000000000000000000000005C
:10119300000000000000000000000000000000004C
:1011A300000000000000000000000000000000003C
:1011B300000000000000000000000000000000002C
:1011C300000000000000000000000000000000001C
:1011D300000000000000000000000000000000000C
:0611E30000000000000006
:00000001FF
