:020000040000FA
:060000000209C6020E49D0
:03000B00020DDF04
:03001300020FB821
:03002B00020B982D
:0300330002089828
:03007300020F5722
:100300007CFF7DFFDDFEDCFA227E32120300DEFB85
:10031000224C6170733A0053746F70776174636834
:100320000044616E50264368726973450000205096
:100330005020C0606010400000000000007020707D
:10034000F810F830F870700000080080707070F0DD
:1003500070E0F8F8708870388880888870F070F0E5
:1003600078F88888888888F87000702000400080BD
:1003700000080030008020108060000000000000B5
:10038000004000000000000030206000000000007D
:10039000000020505078C89020202020200000002D
:1003A00000886088103080400888886060100040B5
:1003B0008808888888908080888820109080D888D5
:1003C000888888888020888888888808400010501D
:1003D0000020008000080048788000008020000095
:1003E000000000000040000000000000402010401D
:1003F0000000000000002050F88010A0404010A82D
:1004000020000000089820082050F08010888860A4
:100410006020F820080888888088808080882010E4
:10042000A080A8C8888888888020888888508810FC
:1004300040801088001070B07068704088B06030E4
:100440009020D0B070F068B070E08888888888F814
:10045000402010A800000000000020005070204044
:1004600000401070F800F80010A82010109008F05C
:100470002070780000400010106888F08088F0F04C
:10048000B8F82010C080A8A888F088F0702088886C
:10049000A820502040401000000008C8809888E044
:1004A00088C82010A020A8C8888898C8804088885C
:1004B0008850881080200810000000000000000014
:1004C000F80840A8004010A82060000020C82020A4
:1004D00008F80888408808606020F82020A8F8887C
:1004E0008088808088882010A08088988880A8A034
:1004F00008208888A85020404020100000007888FC
:100500008088F84078882010C020A88888F07880FB
:1005100070408888A820782040201000000000004B
:100520000000000050F09890002020202020006063
:100530004088204088108888408810602010004043
:1005400000A88888889080808888209090808888FB
:100550008880909008208850A88820804010100043
:10056000000088888888804008882090A02088889B
:100570008880088008489850A85008404020100003
:10058000000000000000200050201868001040000B
:1005900000400060807070F87010707040706000F3
:1005A00040080080207088F070E0F88070887060EB
:1005B00088F8888870806888F0207020508820F83B
:1005C00070087000FC0078F070787040708870607F
:1005D0009070888870800880F0306820508870F8AB
:1005E000302060000000000000000000000000005B
:1005F00000000000000000000000000000000000FB
:1006000000000000000000000000000000000000EA
:1006100000000000000000000000000000000000DA
:1006200000000000000000000000000000000000CA
:1006300000000000000000000000000000000000BA
:10064000000000000000000000000000008E2E8F5F
:100650002F8D308B31AB32AA33A9341207B7700318
:100660000207B6F536C3648094A04009D3E536642A
:100670008094FF4003753620E53575F008A4FFC36C
:1006800074809FFFE530D39F400302079EAF36EF93
:100690003395E0FE75F064E531A42FF582E5F03E78
:1006A000F583E58224C9F582E583340FF583E4936D
:1006B000FBE4F53BF53AF539F538FAEB20E00302B7
:1006C000073FE535B4011DAF3BAE3AAD39AC38F963
:1006D000F8120885EFF53BEEF53AEDF539EC44807C
:1006E000F5388072E535B4021DAF3BAE3AAD39AC9A
:1006F00038F9F8120885EFF53BEEF53AEDF539ECEF
:1007000044C0F5388050E535AF3BAE3AAD39AC3832
:10071000B40315F9F8120885EFF53BEEF53AEDF55F
:1007200039EC44E0F538802EA935A801120885EF90
:10073000F53BEEF53AEDF539EC44F0F5388017AFBE
:100740003BAE3AAD39AC38A935A8011208858F3BCC
:100750008E3A8D398C38EBC313FB0AEA64086003C8
:100760000206BBE4FAEAC395355033EA75F008A4F3
:10077000FFC374189FF537EA75F008A42530FDC053
:1007800005AF3BAE3AAD39AC38A937A801120885A0
:10079000AB07D005AF2FAE2E120ACC0A80C774016A
:1007A0002534F534E43533F533E53575F006A42505
:1007B00030F53002065522BB010689828A83E02289
:1007C0005002E722BBFE02E32289828A83E493225D
:1007D000BB010CE58229F582E5833AF583E02250DE
:1007E00006E92582F8E622BBFE06E92582F8E22228
:1007F000E58229F582E5833AF583E49322F8BB018B
:100800000DE58229F582E5833AF583E8F02250066A
:10081000E92582C8F622BBFE05E92582C8F222BC82
:10082000000BBE0029EF8DF084FFADF022E4CCF880
:1008300075F008EF2FFFEE33FEEC33FCEE9DEC98E5
:100840004005FCEE9DFE0FD5F0E9E4CEFD22EDF86B
:10085000F5F0EE8420D21CFEADF075F008EF2FFF0E
:10086000ED33FD4007985006D5F0F222C398FD0FF6
:10087000D5F0EA22EB9FF5F0EA9E42F0E99D42F0C6
:10088000E89C45F022E8600FECC313FCED13FDEE8D
:1008900013FEEF13FFD8F122C0E0C0F0C083C08286
:1008A000C0D075D000C000C001C002C003C004C0E9
:1008B00005C006C00775A720E5F854F0F4440F52B0
:1008C000F8AF9BEF30E34DE5086031E5A120E02C67
:1008D000300113850C82850B83E5A3F0050CE50C34
:1008E0007007050B800385A326D5080D300305305E
:1008F0000002D2FA120EEA800385080AE5096014A4
:1009000030F911300209A80DE2F5A3050D80037539
:10091000A3001509D007D006D005D004D003D0021B
:10092000D001D000D0D0D082D083D0F0D0E0327BC4
:10093000007A007962AF5FAE5E8E278F288B298A9E
:100940002A892B752C06E4F52DAF2C152CEF339549
:10095000E08F82F583E41207FDAF2C152CEF339561
:10096000E08F82F58374731207FDE52DB40117AB98
:1009700029AA2AA92BAF2C152CEF3395E08F82F5ED
:1009800083742E1207FDAE27AF287C007D0A120863
:100990001FED2430FFAB29AA2AA92BE52CFD3395A6
:1009A000E08D82F583EF1207FDAE27AF287C007D36
:1009B0000A12081F8E278F28052D152CC3E52C64DD
:1009C00080948050A522787FE4F6D8FD75816A0274
:1009D0000A0D020F8FE493A3F8E493A34003F6807B
:1009E00001F208DFF48029E493A3F85407240CC82B
:1009F000C333C4540F4420C8834004F456800146D6
:100A0000F6DFE4800B0102040810204080900D8680
:100A1000E47E019360BCA3FF543F30E509541FFE00
:100A2000E493A360010ECF54C025E060A840B8E471
:100A300093A3FAE493A3F8E493A3C8C582C8CAC5F4
:100A400083CAF0A3C8C582C8CAC583CADFE9DEE786
:100A500080BEE56065616073E561C39409506CE533
:100A60006025E0244BF8A65E08A65FE560701E7B5B
:100A7000FF7A037911752B017D28120B3512092F8E
:100A80007B007A007962752B017D328038E5602524
:100A9000E02449F8E6FE08E6FFE56025E0244BF88F
:100AA000E6FC08E6C39FFFEC9EFE7B007A007962BD
:100AB0001209397B007A007962E56075F008A42498
:100AC00032FD752B01120B3585616022ED13131376
:100AD000541F2FF53DE43EF53C853D82F583C083F0
:100AE000C082ED5407F9E47EFFA801088005CEC35B
:100AF00013CE13D8F9F4FFEEF4FEE05EFEA3E05F40
:100B0000FFD082D083EEF0A3EFF0853D82853C8359
:100B1000C083C082EBFEE4A801088005CEC313CEDB
:100B200013D8F9FFE04EFEA3E04FFFD082D083EE52
:100B3000F0A3EFF0228B278A2889298D2AE4F52C4F
:100B40007E007F14120F247E007F148527328528B3
:100B500033852934852B35AB2C7D0412064D752D3C
:100B600001E52B2401FFE433FEC3E52D9FEE6480F5
:100B7000F87480985018E52C852BF0A4252A252D93
:100B8000FF7B017A007914120C97052D80D3052C78
:100B9000E52CC3940840A922C0E0C0F0C083C08205
:100BA000C0D075D000C000C001C002C003C004C0E6
:100BB00005C006C00753C87F53C8FBE510B4011237
:100BC0007510027F008511257B02E4FDFC120BF7F6
:100BD000800AE510B40305C2A6751000D007D00640
:100BE000D005D004D003D002D001D000D0D0D08224
:100BF000D083D0F0D0E03285250885250985250AE7
:100C00008F0D8C0B8D0CEB139201EBA2E19202AFD6
:100C1000A775A720200403120F35439A0453F80F39
:100C2000539BEF439A08300305300002C2FA30F9B3
:100C300015E5096011300209A80DE2F5A3050D8044
:100C400003E4F5A315098FA722120FB0120E897BBA
:100C5000FF7A037917752B02E4FD120B357BFF7ABF
:100C6000037921752B017D78120B35E4F55EF55F74
:100C7000F561F560F55D120F46120A52E55DB401AB
:100C80000A20A807C2A9120D55D2A9308202D2A803
:100C90003083E3D2AA80DF8F2E8B2F8A3089317F79
:100CA00080120E288F32E52E04FF120DB38F33E42D
:100CB000FFAB2FAA30A9318F827583001207D0FEB7
:100CC00074342FF8A6060FBF10E7E4F544F545FB92
:100CD0007A0079327D14020CD98B468A478948E51F
:100CE0001070FC7510018D11E4FFEFC39D5018AB1F
:100CF00046AA47A9488F827583001207D0FE740068
:100D00002FF8EEF20F80E3AFA7E4F5A775CFFF75DC
:100D1000CEF4D2A643C8048FA7228F288D29E529B7
:100D200060057529FF8003E4F5297F80120E288F66
:100D30002AE52804FF120DB38F2BE4FF742C2FF843
:100D4000A6290FBF10F6E4F53CF53DFB7A00792AA1
:100D50007D14020CD9120FC7120309120FDC120303
:100D600009120FC7120309120FDC120309120FCE6A
:100D7000120309120FDC120309120FD51203091214
:100D80000FDC12030922020E000001100001110005
:100D900002120000C100C103C104C101C102010867
:100DA00000010900010A00010D00020B00000249C8
:100DB000000000EF540FC454F0FEEF54F0C4540F81
:100DC0004EFF543325E025E0FEEF54CC1313543F7F
:100DD0004EFF545525E0FEEF54AAC3134EFF22C028
:100DE000E0C0D0054AE54A70020549B42013E54940
:100DF000B4030E055FE55F7002055E754900754A34
:100E000000D0D0D0E03285A727120F9C120EFE1220
:100E10000F11120FA6120F75120FE3120EA7120F69
:100E200082120FC08527A7228F46120EC0C3EF95EE
:100E30000FFDEE950EFCD3ED94C8EC9400400743F3
:100E400046408E0E8F0FAF4622C0E0C0D075D00056
:100E5000C00720820CB2A9E55D7F0070027F018F80
:100E60005DC2A8D007D0D0D0E032AB07AA06120EE0
:100E7000C08F828E83120EC0C3EF9582FFEE9583E2
:100E8000FEC3EF9BEE9A40ED22AF885388AF758C7E
:100E9000C0EF5440FEEF54104E4288758E027589A3
:100EA00002438810C2A922E59154045391FB759521
:100EB000F87594067593F875920643910442912251
:100EC000AFA775A71053E67FAD13AC1243E6808F32
:100ED000A7AE04AF0522E4F527E4FDAF27120D1AF3
:100EE0000527E527C3948040F022751003AFA7E4DF
:100EF000F5A775CFFF75CEFC43C8048FA722758078
:100F0000FF75A44075F1FF75D43F75FE0475FDFFB4
:100F1000227590FF75A57175F27D75D5FEE4F5EE2D
:100F200075EDFF22E4FDEF2DF582E43EF583E4F05C
:100F30000DBD10F222E5A1A2E69203E5F8540C24BF
:100F4000FF9200D2042212092F7B007A0079627589
:100F50002B027D14020B35C0E053917F0513E5137E
:100F600070020512D0E032C2A6D2B47F0A7E00120F
:100F70000E6A020ED6E4F5A775E34075E10275E24C
:100F8000032275A20B43A14053F8F343F801221248
:100F90000E06D2AF120F67120C4980FEE4F5A7755A
:100FA00097DE7597AD2275A64875A72075CC0822E7
:100FB00075E432D2A8D2AA222083020561C2AA32E5
:100FC00075E68875A86022D294D295C29622C29402
:100FD000D295C29622C294D295D29622D294D2951C
:100FE000D29622E4F5A9F5A9220020505020C06035
:100FF000601040000000000000702070F810F83011
:10100000F870700000080080707070F070E0F8F800
:10101000708870388880888870F070F078F88888D8
:10102000888888F870007020004000800008003038
:1010300000802010806000000000000000400000E0
:101040000000000030206000000000000000205080
:101050005078C89020202020200000000088608860
:1010600010308040088888606010004088088888B8
:1010700088908080888820109080D8888888888888
:1010800080208888888888084000105000200080D0
:101090000008004878800000802000000000000068
:1010A0000040000000000000402010400000000050
:1010B00000002050F88010A0404010A82000000040
:1010C000089820082050F080108888606020F82060
:1010D000080888888088808080882010A080A8C820
:1010E0008888888880208888885088104080108868
:1010F000001070B07068704088B060309020D0B040
:1011000070F068B070E08888888888F8402010A85F
:1011100000000000000020005070204000401070CF
:10112000F800F80010A82010109008F02070780047
:1011300000400010106888F08088F0F0B8F82010A7
:10114000C080A8A888F088F070208888A820502047
:1011500040401000000008C8809888E088C820102F
:10116000A020A8C8888898C880408888885088109F
:10117000802008100000000000000000F80840A8CF
:10118000004010A82060000020C8202008F808882F
:10119000408808606020F82020A8F8888088808037
:1011A00088882010A08088988880A8A00820888837
:1011B000A850204040201000000078888088F84027
:1011C00078882010C020A88888F0788070408888AF
:1011D000A82078204020100000000000000000003F
:1011E00050F098900020202020200060408820406F
:1011F00088108888408810602010004000A88888E7
:1012000088908080888820909080888888809090BE
:1012100008208850A888208040101000000088888E
:101220008888804008882090A0208888888008804E
:1012300008489850A85008404020100000000000C6
:10124000000020005020186800104000004000609E
:10125000807070F8701070704070600040080080FE
:10126000207088F070E0F8807088706088F8888856
:1012700070806888F0207020508820F87008700016
:10128000FC0078F07078704070887060907088888A
:1012900070800880F0306820508870F8302060003E
:1012A000000000000000000000000000000000003E
:1012B000000000000000000000000000000000002E
:1012C000000000000000000000000000000000001E
:1012D000000000000000000000000000000000000E
:1012E00000000000000000000000000000000000FE
:1012F00000000000000000000000000000000000EE
:09130000000000000000000000E4
:00000001FF
